{
  "_format": "hh-sol-artifact-1",
  "contractName": "Voting",
  "sourceName": "contracts/Voting.sol",
  "abi": [
    {
      "inputs": [
        {
          "internalType": "string",
          "name": "_title",
          "type": "string"
        },
        {
          "internalType": "string[]",
          "name": "candidateNames",
          "type": "string[]"
        },
        {
          "internalType": "uint64",
          "name": "_startTs",
          "type": "uint64"
        },
        {
          "internalType": "uint64",
          "name": "_endTs",
          "type": "uint64"
        }
      ],
      "stateMutability": "nonpayable",
      "type": "constructor"
    },
    {
      "anonymous": false,
      "inputs": [
        {
          "indexed": false,
          "internalType": "string",
          "name": "title",
          "type": "string"
        },
        {
          "indexed": false,
          "internalType": "uint64",
          "name": "startTs",
          "type": "uint64"
        },
        {
          "indexed": false,
          "internalType": "uint64",
          "name": "endTs",
          "type": "uint64"
        }
      ],
      "name": "ElectionConfigured",
      "type": "event"
    },
    {
      "anonymous": false,
      "inputs": [
        {
          "indexed": true,
          "internalType": "address",
          "name": "voter",
          "type": "address"
        },
        {
          "indexed": true,
          "internalType": "bytes32",
          "name": "receipt",
          "type": "bytes32"
        }
      ],
      "name": "VoteCast",
      "type": "event"
    },
    {
      "anonymous": false,
      "inputs": [
        {
          "indexed": true,
          "internalType": "address",
          "name": "voter",
          "type": "address"
        }
      ],
      "name": "VoterRegistered",
      "type": "event"
    },
    {
      "inputs": [],
      "name": "admin",
      "outputs": [
        {
          "internalType": "address",
          "name": "",
          "type": "address"
        }
      ],
      "stateMutability": "view",
      "type": "function"
    },
    {
      "inputs": [],
      "name": "candidateCount",
      "outputs": [
        {
          "internalType": "uint256",
          "name": "",
          "type": "uint256"
        }
      ],
      "stateMutability": "view",
      "type": "function"
    },
    {
      "inputs": [],
      "name": "candidates",
      "outputs": [
        {
          "internalType": "string[]",
          "name": "",
          "type": "string[]"
        }
      ],
      "stateMutability": "view",
      "type": "function"
    },
    {
      "inputs": [],
      "name": "closeEarly",
      "outputs": [],
      "stateMutability": "nonpayable",
      "type": "function"
    },
    {
      "inputs": [],
      "name": "electionInfo",
      "outputs": [
        {
          "internalType": "string",
          "name": "",
          "type": "string"
        },
        {
          "internalType": "uint64",
          "name": "",
          "type": "uint64"
        },
        {
          "internalType": "uint64",
          "name": "",
          "type": "uint64"
        }
      ],
      "stateMutability": "view",
      "type": "function"
    },
    {
      "inputs": [],
      "name": "endTs",
      "outputs": [
        {
          "internalType": "uint64",
          "name": "",
          "type": "uint64"
        }
      ],
      "stateMutability": "view",
      "type": "function"
    },
    {
      "inputs": [
        {
          "internalType": "bytes32",
          "name": "receipt",
          "type": "bytes32"
        }
      ],
      "name": "hasReceipt",
      "outputs": [
        {
          "internalType": "bool",
          "name": "",
          "type": "bool"
        }
      ],
      "stateMutability": "view",
      "type": "function"
    },
    {
      "inputs": [
        {
          "internalType": "address",
          "name": "",
          "type": "address"
        }
      ],
      "name": "hasVoted",
      "outputs": [
        {
          "internalType": "bool",
          "name": "",
          "type": "bool"
        }
      ],
      "stateMutability": "view",
      "type": "function"
    },
    {
      "inputs": [
        {
          "internalType": "address[]",
          "name": "addrs",
          "type": "address[]"
        }
      ],
      "name": "registerVoters",
      "outputs": [],
      "stateMutability": "nonpayable",
      "type": "function"
    },
    {
      "inputs": [
        {
          "internalType": "address",
          "name": "",
          "type": "address"
        }
      ],
      "name": "registered",
      "outputs": [
        {
          "internalType": "bool",
          "name": "",
          "type": "bool"
        }
      ],
      "stateMutability": "view",
      "type": "function"
    },
    {
      "inputs": [],
      "name": "startTs",
      "outputs": [
        {
          "internalType": "uint64",
          "name": "",
          "type": "uint64"
        }
      ],
      "stateMutability": "view",
      "type": "function"
    },
    {
      "inputs": [],
      "name": "status",
      "outputs": [
        {
          "internalType": "string",
          "name": "",
          "type": "string"
        }
      ],
      "stateMutability": "view",
      "type": "function"
    },
    {
      "inputs": [],
      "name": "tally",
      "outputs": [
        {
          "internalType": "uint256[]",
          "name": "",
          "type": "uint256[]"
        }
      ],
      "stateMutability": "view",
      "type": "function"
    },
    {
      "inputs": [],
      "name": "title",
      "outputs": [
        {
          "internalType": "string",
          "name": "",
          "type": "string"
        }
      ],
      "stateMutability": "view",
      "type": "function"
    },
    {
      "inputs": [
        {
          "internalType": "uint64",
          "name": "_startTs",
          "type": "uint64"
        },
        {
          "internalType": "uint64",
          "name": "_endTs",
          "type": "uint64"
        }
      ],
      "name": "updateWindow",
      "outputs": [],
      "stateMutability": "nonpayable",
      "type": "function"
    },
    {
      "inputs": [
        {
          "internalType": "uint256",
          "name": "optionIndex",
          "type": "uint256"
        },
        {
          "internalType": "bytes32",
          "name": "receipt",
          "type": "bytes32"
        }
      ],
      "name": "vote",
      "outputs": [],
      "stateMutability": "nonpayable",
      "type": "function"
    }
  ],
  "bytecode": "0x608060405234801561001057600080fd5b506040516127bd3803806127bd833981810160405281019061003291906105ec565b600283511015610077576040517f08c379a000000000000000000000000000000000000000000000000000000000815260040161006e906106e8565b60405180910390fd5b8167ffffffffffffffff168167ffffffffffffffff16116100cd576040517f08c379a00000000000000000000000000000000000000000000000000000000081526004016100c490610754565b60405180910390fd5b336000806101000a81548173ffffffffffffffffffffffffffffffffffffffff021916908373ffffffffffffffffffffffffffffffffffffffff160217905550836001908161011c9190610995565b50826002908051906020019061013392919061022a565b5081600360006101000a81548167ffffffffffffffff021916908367ffffffffffffffff16021790555080600360086101000a81548167ffffffffffffffff021916908367ffffffffffffffff160217905550825167ffffffffffffffff8111156101a1576101a0610380565b5b6040519080825280602002602001820160405280156101cf5781602001602082028036833780820191505090505b50600490805190602001906101e5929190610283565b507ffd5b17f029cf65fd1ba25981c4377612926f7f9a60fbc32cdaeb311461f0175084838360405161021993929190610aaf565b60405180910390a150505050610aed565b828054828255906000526020600020908101928215610272579160200282015b828111156102715782518290816102619190610995565b509160200191906001019061024a565b5b50905061027f91906102d0565b5090565b8280548282559060005260206000209081019282156102bf579160200282015b828111156102be5782518255916020019190600101906102a3565b5b5090506102cc91906102f4565b5090565b5b808211156102f057600081816102e79190610311565b506001016102d1565b5090565b5b8082111561030d5760008160009055506001016102f5565b5090565b50805461031d906107ae565b6000825580601f1061032f575061034e565b601f01602090049060005260206000209081019061034d91906102f4565b5b50565b6000604051905090565b600080fd5b600080fd5b600080fd5b600080fd5b6000601f19601f8301169050919050565b7f4e487b7100000000000000000000000000000000000000000000000000000000600052604160045260246000fd5b6103b88261036f565b810181811067ffffffffffffffff821117156103d7576103d6610380565b5b80604052505050565b60006103ea610351565b90506103f682826103af565b919050565b600067ffffffffffffffff82111561041657610415610380565b5b61041f8261036f565b9050602081019050919050565b60005b8381101561044a57808201518184015260208101905061042f565b60008484015250505050565b6000610469610464846103fb565b6103e0565b9050828152602081018484840111156104855761048461036a565b5b61049084828561042c565b509392505050565b600082601f8301126104ad576104ac610365565b5b81516104bd848260208601610456565b91505092915050565b600067ffffffffffffffff8211156104e1576104e0610380565b5b602082029050602081019050919050565b600080fd5b600061050a610505846104c6565b6103e0565b9050808382526020820190506020840283018581111561052d5761052c6104f2565b5b835b8181101561057457805167ffffffffffffffff81111561055257610551610365565b5b80860161055f8982610498565b8552602085019450505060208101905061052f565b5050509392505050565b600082601f83011261059357610592610365565b5b81516105a38482602086016104f7565b91505092915050565b600067ffffffffffffffff82169050919050565b6105c9816105ac565b81146105d457600080fd5b50565b6000815190506105e6816105c0565b92915050565b600080600080608085870312156106065761060561035b565b5b600085015167ffffffffffffffff81111561062457610623610360565b5b61063087828801610498565b945050602085015167ffffffffffffffff81111561065157610650610360565b5b61065d8782880161057e565b935050604061066e878288016105d7565b925050606061067f878288016105d7565b91505092959194509250565b600082825260208201905092915050565b7f6e656564203e3d20322063616e64696461746573000000000000000000000000600082015250565b60006106d260148361068b565b91506106dd8261069c565b602082019050919050565b60006020820190508181036000830152610701816106c5565b9050919050565b7f6261642074696d652077696e646f770000000000000000000000000000000000600082015250565b600061073e600f8361068b565b915061074982610708565b602082019050919050565b6000602082019050818103600083015261076d81610731565b9050919050565b600081519050919050565b7f4e487b7100000000000000000000000000000000000000000000000000000000600052602260045260246000fd5b600060028204905060018216806107c657607f821691505b6020821081036107d9576107d861077f565b5b50919050565b60008190508160005260206000209050919050565b60006020601f8301049050919050565b600082821b905092915050565b6000600883026108417fffffffffffffffffffffffffffffffffffffffffffffffffffffffffffffffff82610804565b61084b8683610804565b95508019841693508086168417925050509392505050565b6000819050919050565b6000819050919050565b600061089261088d61088884610863565b61086d565b610863565b9050919050565b6000819050919050565b6108ac83610877565b6108c06108b882610899565b848454610811565b825550505050565b600090565b6108d56108c8565b6108e08184846108a3565b505050565b5b81811015610904576108f96000826108cd565b6001810190506108e6565b5050565b601f8211156109495761091a816107df565b610923846107f4565b81016020851015610932578190505b61094661093e856107f4565b8301826108e5565b50505b505050565b600082821c905092915050565b600061096c6000198460080261094e565b1980831691505092915050565b6000610985838361095b565b9150826002028217905092915050565b61099e82610774565b67ffffffffffffffff8111156109b7576109b6610380565b5b6109c182546107ae565b6109cc828285610908565b600060209050601f8311600181146109ff57600084156109ed578287015190505b6109f78582610979565b865550610a5f565b601f198416610a0d866107df565b60005b82811015610a3557848901518255600182019150602085019450602081019050610a10565b86831015610a525784890151610a4e601f89168261095b565b8355505b6001600288020188555050505b505050505050565b6000610a7282610774565b610a7c818561068b565b9350610a8c81856020860161042c565b610a958161036f565b840191505092915050565b610aa9816105ac565b82525050565b60006060820190508181036000830152610ac98186610a67565b9050610ad86020830185610aa0565b610ae56040830184610aa0565b949350505050565b611cc180610afc6000396000f3fe608060405234801561001057600080fd5b50600436106101005760003560e01c80636f0470aa11610097578063c84477f111610066578063c84477f11461027b578063d55ec9c114610299578063f4e98e0b146102b5578063f851a440146102e557610100565b80636f0470aa14610205578063a9a981a314610223578063ae0f2ad114610241578063b2dd5c071461024b57610100565b80634a79d50c116100d35780634a79d50c1461018f57806368bb8bb6146101ad5780636a1f9315146101c95780636c74bf6d146101e557610100565b806309eef43e14610105578063200d2ed21461013557806325677e4f14610153578063410673e514610171575b600080fd5b61011f600480360381019061011a91906110a0565b610303565b60405161012c91906110e8565b60405180910390f35b61013d610323565b60405161014a9190611193565b60405180910390f35b61015b610458565b60405161016891906111d8565b60405180910390f35b610179610472565b60405161018691906112bb565b60405180910390f35b6101976104ca565b6040516101a49190611193565b60405180910390f35b6101c760048036038101906101c2919061133f565b610558565b005b6101e360048036038101906101de91906113ab565b6108aa565b005b6101ed610a82565b6040516101fc939291906113eb565b60405180910390f35b61020d610b4e565b60405161021a9190611535565b60405180910390f35b61022b610c27565b6040516102389190611566565b60405180910390f35b610249610c34565b005b610265600480360381019061026091906110a0565b610db7565b60405161027291906110e8565b60405180910390f35b610283610dd7565b60405161029091906111d8565b60405180910390f35b6102b360048036038101906102ae91906115e6565b610df1565b005b6102cf60048036038101906102ca9190611633565b610fea565b6040516102dc91906110e8565b60405180910390f35b6102ed611014565b6040516102fa919061166f565b60405180910390f35b60066020528060005260406000206000915054906101000a900460ff1681565b6060600360009054906101000a900467ffffffffffffffff1667ffffffffffffffff1642101561038a576040518060400160405280600781526020017f50454e44494e47000000000000000000000000000000000000000000000000008152509050610455565b600360009054906101000a900467ffffffffffffffff1667ffffffffffffffff1642101580156103da5750600360089054906101000a900467ffffffffffffffff1667ffffffffffffffff164211155b1561041c576040518060400160405280600481526020017f4f50454e000000000000000000000000000000000000000000000000000000008152509050610455565b6040518060400160405280600681526020017f434c4f534544000000000000000000000000000000000000000000000000000081525090505b90565b600360009054906101000a900467ffffffffffffffff1681565b606060048054806020026020016040519081016040528092919081815260200182805480156104c057602002820191906000526020600020905b8154815260200190600101908083116104ac575b5050505050905090565b600180546104d7906116b9565b80601f0160208091040260200160405190810160405280929190818152602001828054610503906116b9565b80156105505780601f1061052557610100808354040283529160200191610550565b820191906000526020600020905b81548152906001019060200180831161053357829003601f168201915b505050505081565b600360009054906101000a900467ffffffffffffffff1667ffffffffffffffff1642101580156105a85750600360089054906101000a900467ffffffffffffffff1667ffffffffffffffff164211155b6105e7576040517f08c379a00000000000000000000000000000000000000000000000000000000081526004016105de90611736565b60405180910390fd5b600560003373ffffffffffffffffffffffffffffffffffffffff1673ffffffffffffffffffffffffffffffffffffffff16815260200190815260200160002060009054906101000a900460ff16610673576040517f08c379a000000000000000000000000000000000000000000000000000000000815260040161066a906117a2565b60405180910390fd5b600660003373ffffffffffffffffffffffffffffffffffffffff1673ffffffffffffffffffffffffffffffffffffffff16815260200190815260200160002060009054906101000a900460ff1615610700576040517f08c379a00000000000000000000000000000000000000000000000000000000081526004016106f79061180e565b60405180910390fd5b6004805490508210610747576040517f08c379a000000000000000000000000000000000000000000000000000000000815260040161073e9061187a565b60405180910390fd5b6007600082815260200190815260200160002060009054906101000a900460ff16156107a8576040517f08c379a000000000000000000000000000000000000000000000000000000000815260040161079f906118e6565b60405180910390fd5b6001600660003373ffffffffffffffffffffffffffffffffffffffff1673ffffffffffffffffffffffffffffffffffffffff16815260200190815260200160002060006101000a81548160ff02191690831515021790555060016007600083815260200190815260200160002060006101000a81548160ff02191690831515021790555060016004838154811061084257610841611906565b5b90600052602060002001600082825461085b9190611964565b92505081905550803373ffffffffffffffffffffffffffffffffffffffff167fa55a6802e1be8e8b837435e17cec23b2e9cd61773bb7b073eb7e1c176cdf3d3260405160405180910390a35050565b60008054906101000a900473ffffffffffffffffffffffffffffffffffffffff1673ffffffffffffffffffffffffffffffffffffffff163373ffffffffffffffffffffffffffffffffffffffff1614610938576040517f08c379a000000000000000000000000000000000000000000000000000000000815260040161092f906119e4565b60405180910390fd5b600360009054906101000a900467ffffffffffffffff1667ffffffffffffffff16421061099a576040517f08c379a000000000000000000000000000000000000000000000000000000000815260040161099190611a50565b60405180910390fd5b8167ffffffffffffffff168167ffffffffffffffff16116109f0576040517f08c379a00000000000000000000000000000000000000000000000000000000081526004016109e790611abc565b60405180910390fd5b81600360006101000a81548167ffffffffffffffff021916908367ffffffffffffffff16021790555080600360086101000a81548167ffffffffffffffff021916908367ffffffffffffffff1602179055507ffd5b17f029cf65fd1ba25981c4377612926f7f9a60fbc32cdaeb311461f0175060018383604051610a7693929190611b75565b60405180910390a15050565b60606000806001600360009054906101000a900467ffffffffffffffff16600360089054906101000a900467ffffffffffffffff16828054610ac3906116b9565b80601f0160208091040260200160405190810160405280929190818152602001828054610aef906116b9565b8015610b3c5780601f10610b1157610100808354040283529160200191610b3c565b820191906000526020600020905b815481529060010190602001808311610b1f57829003601f168201915b50505050509250925092509250909192565b60606002805480602002602001604051908101604052809291908181526020016000905b82821015610c1e578382906000526020600020018054610b91906116b9565b80601f0160208091040260200160405190810160405280929190818152602001828054610bbd906116b9565b8015610c0a5780601f10610bdf57610100808354040283529160200191610c0a565b820191906000526020600020905b815481529060010190602001808311610bed57829003601f168201915b505050505081526020019060010190610b72565b50505050905090565b6000600480549050905090565b60008054906101000a900473ffffffffffffffffffffffffffffffffffffffff1673ffffffffffffffffffffffffffffffffffffffff163373ffffffffffffffffffffffffffffffffffffffff1614610cc2576040517f08c379a0000000000000000000000000000000000000000000000000000000008152600401610cb9906119e4565b60405180910390fd5b600360089054906101000a900467ffffffffffffffff1667ffffffffffffffff164210610d24576040517f08c379a0000000000000000000000000000000000000000000000000000000008152600401610d1b90611bff565b60405180910390fd5b42600360086101000a81548167ffffffffffffffff021916908367ffffffffffffffff1602179055507ffd5b17f029cf65fd1ba25981c4377612926f7f9a60fbc32cdaeb311461f017506001600360009054906101000a900467ffffffffffffffff16600360089054906101000a900467ffffffffffffffff16604051610dad93929190611b75565b60405180910390a1565b60056020528060005260406000206000915054906101000a900460ff1681565b600360089054906101000a900467ffffffffffffffff1681565b60008054906101000a900473ffffffffffffffffffffffffffffffffffffffff1673ffffffffffffffffffffffffffffffffffffffff163373ffffffffffffffffffffffffffffffffffffffff1614610e7f576040517f08c379a0000000000000000000000000000000000000000000000000000000008152600401610e76906119e4565b60405180910390fd5b600360009054906101000a900467ffffffffffffffff1667ffffffffffffffff164210610ee1576040517f08c379a0000000000000000000000000000000000000000000000000000000008152600401610ed890611c6b565b60405180910390fd5b60005b82829050811015610fe557600160056000858585818110610f0857610f07611906565b5b9050602002016020810190610f1d91906110a0565b73ffffffffffffffffffffffffffffffffffffffff1673ffffffffffffffffffffffffffffffffffffffff16815260200190815260200160002060006101000a81548160ff021916908315150217905550828282818110610f8157610f80611906565b5b9050602002016020810190610f9691906110a0565b73ffffffffffffffffffffffffffffffffffffffff167fb6be2187d059cc2a55fe29e0e503b566e1e0f8c8780096e185429350acffd3dd60405160405180910390a28080600101915050610ee4565b505050565b60006007600083815260200190815260200160002060009054906101000a900460ff169050919050565b60008054906101000a900473ffffffffffffffffffffffffffffffffffffffff1681565b600080fd5b600080fd5b600073ffffffffffffffffffffffffffffffffffffffff82169050919050565b600061106d82611042565b9050919050565b61107d81611062565b811461108857600080fd5b50565b60008135905061109a81611074565b92915050565b6000602082840312156110b6576110b5611038565b5b60006110c48482850161108b565b91505092915050565b60008115159050919050565b6110e2816110cd565b82525050565b60006020820190506110fd60008301846110d9565b92915050565b600081519050919050565b600082825260208201905092915050565b60005b8381101561113d578082015181840152602081019050611122565b60008484015250505050565b6000601f19601f8301169050919050565b600061116582611103565b61116f818561110e565b935061117f81856020860161111f565b61118881611149565b840191505092915050565b600060208201905081810360008301526111ad818461115a565b905092915050565b600067ffffffffffffffff82169050919050565b6111d2816111b5565b82525050565b60006020820190506111ed60008301846111c9565b92915050565b600081519050919050565b600082825260208201905092915050565b6000819050602082019050919050565b6000819050919050565b6112328161121f565b82525050565b60006112448383611229565b60208301905092915050565b6000602082019050919050565b6000611268826111f3565b61127281856111fe565b935061127d8361120f565b8060005b838110156112ae5781516112958882611238565b97506112a083611250565b925050600181019050611281565b5085935050505092915050565b600060208201905081810360008301526112d5818461125d565b905092915050565b6112e68161121f565b81146112f157600080fd5b50565b600081359050611303816112dd565b92915050565b6000819050919050565b61131c81611309565b811461132757600080fd5b50565b60008135905061133981611313565b92915050565b6000806040838503121561135657611355611038565b5b6000611364858286016112f4565b92505060206113758582860161132a565b9150509250929050565b611388816111b5565b811461139357600080fd5b50565b6000813590506113a58161137f565b92915050565b600080604083850312156113c2576113c1611038565b5b60006113d085828601611396565b92505060206113e185828601611396565b9150509250929050565b60006060820190508181036000830152611405818661115a565b905061141460208301856111c9565b61142160408301846111c9565b949350505050565b600081519050919050565b600082825260208201905092915050565b6000819050602082019050919050565b600082825260208201905092915050565b600061147182611103565b61147b8185611455565b935061148b81856020860161111f565b61149481611149565b840191505092915050565b60006114ab8383611466565b905092915050565b6000602082019050919050565b60006114cb82611429565b6114d58185611434565b9350836020820285016114e785611445565b8060005b858110156115235784840389528151611504858261149f565b945061150f836114b3565b925060208a019950506001810190506114eb565b50829750879550505050505092915050565b6000602082019050818103600083015261154f81846114c0565b905092915050565b6115608161121f565b82525050565b600060208201905061157b6000830184611557565b92915050565b600080fd5b600080fd5b600080fd5b60008083601f8401126115a6576115a5611581565b5b8235905067ffffffffffffffff8111156115c3576115c2611586565b5b6020830191508360208202830111156115df576115de61158b565b5b9250929050565b600080602083850312156115fd576115fc611038565b5b600083013567ffffffffffffffff81111561161b5761161a61103d565b5b61162785828601611590565b92509250509250929050565b60006020828403121561164957611648611038565b5b60006116578482850161132a565b91505092915050565b61166981611062565b82525050565b60006020820190506116846000830184611660565b92915050565b7f4e487b7100000000000000000000000000000000000000000000000000000000600052602260045260246000fd5b600060028204905060018216806116d157607f821691505b6020821081036116e4576116e361168a565b5b50919050565b7f6e6f7420696e20766f74696e672077696e646f77000000000000000000000000600082015250565b600061172060148361110e565b915061172b826116ea565b602082019050919050565b6000602082019050818103600083015261174f81611713565b9050919050565b7f6e6f742072656769737465726564000000000000000000000000000000000000600082015250565b600061178c600e8361110e565b915061179782611756565b602082019050919050565b600060208201905081810360008301526117bb8161177f565b9050919050565b7f616c726561647920766f74656400000000000000000000000000000000000000600082015250565b60006117f8600d8361110e565b9150611803826117c2565b602082019050919050565b60006020820190508181036000830152611827816117eb565b9050919050565b7f626164206f7074696f6e00000000000000000000000000000000000000000000600082015250565b6000611864600a8361110e565b915061186f8261182e565b602082019050919050565b6000602082019050818103600083015261189381611857565b9050919050565b7f7265636569707420757365640000000000000000000000000000000000000000600082015250565b60006118d0600c8361110e565b91506118db8261189a565b602082019050919050565b600060208201905081810360008301526118ff816118c3565b9050919050565b7f4e487b7100000000000000000000000000000000000000000000000000000000600052603260045260246000fd5b7f4e487b7100000000000000000000000000000000000000000000000000000000600052601160045260246000fd5b600061196f8261121f565b915061197a8361121f565b925082820190508082111561199257611991611935565b5b92915050565b7f6e6f742061646d696e0000000000000000000000000000000000000000000000600082015250565b60006119ce60098361110e565b91506119d982611998565b602082019050919050565b600060208201905081810360008301526119fd816119c1565b9050919050565b7f616c726561647920737461727465640000000000000000000000000000000000600082015250565b6000611a3a600f8361110e565b9150611a4582611a04565b602082019050919050565b60006020820190508181036000830152611a6981611a2d565b9050919050565b7f6261642074696d652077696e646f770000000000000000000000000000000000600082015250565b6000611aa6600f8361110e565b9150611ab182611a70565b602082019050919050565b60006020820190508181036000830152611ad581611a99565b9050919050565b60008190508160005260206000209050919050565b60008154611afe816116b9565b611b08818661110e565b94506001821660008114611b235760018114611b3957611b6c565b60ff198316865281151560200286019350611b6c565b611b4285611adc565b60005b83811015611b6457815481890152600182019150602081019050611b45565b808801955050505b50505092915050565b60006060820190508181036000830152611b8f8186611af1565b9050611b9e60208301856111c9565b611bab60408301846111c9565b949350505050565b7f616c726561647920656e64656400000000000000000000000000000000000000600082015250565b6000611be9600d8361110e565b9150611bf482611bb3565b602082019050919050565b60006020820190508181036000830152611c1881611bdc565b9050919050565b7f726567697374726174696f6e20636c6f73656400000000000000000000000000600082015250565b6000611c5560138361110e565b9150611c6082611c1f565b602082019050919050565b60006020820190508181036000830152611c8481611c48565b905091905056fea26469706673582212202e3d8056850c7bbcd61066296ed5d27ced6bb051a4b1c2d80a779fc7a5e9253464736f6c634300081c0033",
  "linkReferences": {},
  "deployedLinkReferences": {}
}